{
  "_format": "hh-sol-artifact-1",
  "contractName": "TokenCheck",
  "sourceName": "contracts/TokenCheck.sol",
  "abi": [
    {
      "inputs": [
        {
          "internalType": "address",
          "name": "_erc721Address",
          "type": "address"
        }
      ],
      "stateMutability": "nonpayable",
      "type": "constructor"
    },
    {
      "inputs": [
        {
          "internalType": "uint256",
          "name": "startSRNumber",
          "type": "uint256"
        },
        {
          "internalType": "uint256",
          "name": "endSRNumber",
          "type": "uint256"
        },
        {
          "internalType": "address",
          "name": "from",
          "type": "address"
        },
        {
          "internalType": "address",
          "name": "to",
          "type": "address"
        }
      ],
      "name": "batchTransfer",
      "outputs": [],
      "stateMutability": "nonpayable",
      "type": "function"
    },
    {
      "inputs": [
        {
          "internalType": "uint256",
          "name": "startSRNumber",
          "type": "uint256"
        },
        {
          "internalType": "uint256",
          "name": "endSRNumber",
          "type": "uint256"
        },
        {
          "internalType": "address",
          "name": "from",
          "type": "address"
        },
        {
          "internalType": "address",
          "name": "to",
          "type": "address"
        }
      ],
      "name": "batchTransferWithMissingTokens",
      "outputs": [
        {
          "internalType": "uint256[]",
          "name": "",
          "type": "uint256[]"
        }
      ],
      "stateMutability": "nonpayable",
      "type": "function"
    },
    {
      "inputs": [],
      "name": "erc721Contract",
      "outputs": [
        {
          "internalType": "contract IERC721",
          "name": "",
          "type": "address"
        }
      ],
      "stateMutability": "view",
      "type": "function"
    },
    {
      "inputs": [
        {
          "internalType": "uint256",
          "name": "startSRNumber",
          "type": "uint256"
        },
        {
          "internalType": "uint256",
          "name": "endSRNumber",
          "type": "uint256"
        },
        {
          "internalType": "address",
          "name": "from",
          "type": "address"
        }
      ],
      "name": "getMissingTokens",
      "outputs": [
        {
          "internalType": "uint256[]",
          "name": "",
          "type": "uint256[]"
        }
      ],
      "stateMutability": "view",
      "type": "function"
    }
  ],
  "bytecode": "0x608060405234801561001057600080fd5b506040516109de3803806109de83398101604081905261002f91610054565b600080546001600160a01b0319166001600160a01b0392909216919091179055610082565b600060208284031215610065578081fd5b81516001600160a01b038116811461007b578182fd5b9392505050565b61094d806100916000396000f3fe608060405234801561001057600080fd5b506004361061004c5760003560e01c8063015b9bb314610051578063754ffbe514610066578063d7c97fb41461008f578063fbd12eae146100a4575b600080fd5b61006461005f36600461078e565b6100b7565b005b61007961007436600461078e565b6101fa565b60405161008691906107fb565b60405180910390f35b6100976104e1565b604051610086919061083f565b6100796100b2366004610756565b6104f0565b828411156100e05760405162461bcd60e51b81526004016100d790610853565b60405180910390fd5b835b8381116101f3576000546040516331a9108f60e11b81526001600160a01b03808616921690636352211e9061011b908590600401610896565b60206040518083038186803b15801561013357600080fd5b505afa158015610147573d6000803e3d6000fd5b505050506040513d601f19601f8201168201806040525081019061016b9190610733565b6001600160a01b031614156101e157600054604051632142170760e11b81526001600160a01b03909116906342842e0e906101ae908690869086906004016107d7565b600060405180830381600087803b1580156101c857600080fd5b505af11580156101dc573d6000803e3d6000fd5b505050505b806101eb816108ce565b9150506100e2565b5050505050565b60608385111561021c5760405162461bcd60e51b81526004016100d790610853565b600061022886866108b7565b61023390600161089f565b67ffffffffffffffff81111561025957634e487b7160e01b600052604160045260246000fd5b604051908082528060200260200182016040528015610282578160200160208202803683370190505b5090506000865b86811161040f576000546040516331a9108f60e11b81526001600160a01b03808916921690636352211e906102c2908590600401610896565b60206040518083038186803b1580156102da57600080fd5b505afa1580156102ee573d6000803e3d6000fd5b505050506040513d601f19601f820116820180604052508101906103129190610733565b6001600160a01b031614156103c357600054604051632142170760e11b81526001600160a01b03909116906342842e0e90610355908990899086906004016107d7565b600060405180830381600087803b15801561036f57600080fd5b505af1925050508015610380575060015b6103be57808383815181106103a557634e487b7160e01b600052603260045260246000fd5b6020908102919091010152816103ba816108ce565b9250505b6103fd565b808383815181106103e457634e487b7160e01b600052603260045260246000fd5b6020908102919091010152816103f9816108ce565b9250505b80610407816108ce565b915050610289565b5060008167ffffffffffffffff81111561043957634e487b7160e01b600052604160045260246000fd5b604051908082528060200260200182016040528015610462578160200160208202803683370190505b50905060005b828110156104d55783818151811061049057634e487b7160e01b600052603260045260246000fd5b60200260200101518282815181106104b857634e487b7160e01b600052603260045260246000fd5b6020908102919091010152806104cd816108ce565b915050610468565b50979650505050505050565b6000546001600160a01b031681565b6060828411156105125760405162461bcd60e51b81526004016100d790610853565b600061051e85856108b7565b61052990600161089f565b67ffffffffffffffff81111561054f57634e487b7160e01b600052604160045260246000fd5b604051908082528060200260200182016040528015610578578160200160208202803683370190505b5090506000855b858111610662576000546040516331a9108f60e11b81526001600160a01b03808816921690636352211e906105b8908590600401610896565b60206040518083038186803b1580156105d057600080fd5b505afa1580156105e4573d6000803e3d6000fd5b505050506040513d601f19601f820116820180604052508101906106089190610733565b6001600160a01b031614610650578083838151811061063757634e487b7160e01b600052603260045260246000fd5b60209081029190910101528161064c816108ce565b9250505b8061065a816108ce565b91505061057f565b5060008167ffffffffffffffff81111561068c57634e487b7160e01b600052604160045260246000fd5b6040519080825280602002602001820160405280156106b5578160200160208202803683370190505b50905060005b82811015610728578381815181106106e357634e487b7160e01b600052603260045260246000fd5b602002602001015182828151811061070b57634e487b7160e01b600052603260045260246000fd5b602090810291909101015280610720816108ce565b9150506106bb565b509695505050505050565b600060208284031215610744578081fd5b815161074f816108ff565b9392505050565b60008060006060848603121561076a578182fd5b83359250602084013591506040840135610783816108ff565b809150509250925092565b600080600080608085870312156107a3578081fd5b843593506020850135925060408501356107bc816108ff565b915060608501356107cc816108ff565b939692955090935050565b6001600160a01b039384168152919092166020820152604081019190915260600190565b6020808252825182820181905260009190848201906040850190845b8181101561083357835183529284019291840191600101610817565b50909695505050505050565b6001600160a01b0391909116815260200190565b60208082526023908201527f496e76616c69642072616e67653a207374617274206d757374206265203c3d20604082015262195b9960ea1b606082015260800190565b90815260200190565b600082198211156108b2576108b26108e9565b500190565b6000828210156108c9576108c96108e9565b500390565b60006000198214156108e2576108e26108e9565b5060010190565b634e487b7160e01b600052601160045260246000fd5b6001600160a01b038116811461091457600080fd5b5056fea264697066735822122094a8da240c34df8aec1416266eb97d3820424460a4e68a58aedc9b6d08bb389c64736f6c63430008000033",
  "linkReferences": {},
  "deployedLinkReferences": {}
}