{
  "_format": "hh-sol-artifact-1",
  "contractName": "MyNFT",
  "sourceName": "contracts/NFToken.sol",
  "abi": [
    {
      "inputs": [
        {
          "internalType": "string",
          "name": "baseURI",
          "type": "string"
        }
      ],
      "stateMutability": "nonpayable",
      "type": "constructor"
    },
    {
      "anonymous": false,
      "inputs": [
        {
          "indexed": true,
          "internalType": "address",
          "name": "owner",
          "type": "address"
        },
        {
          "indexed": true,
          "internalType": "address",
          "name": "approved",
          "type": "address"
        },
        {
          "indexed": true,
          "internalType": "uint256",
          "name": "tokenId",
          "type": "uint256"
        }
      ],
      "name": "Approval",
      "type": "event"
    },
    {
      "anonymous": false,
      "inputs": [
        {
          "indexed": true,
          "internalType": "address",
          "name": "owner",
          "type": "address"
        },
        {
          "indexed": true,
          "internalType": "address",
          "name": "operator",
          "type": "address"
        },
        {
          "indexed": false,
          "internalType": "bool",
          "name": "approved",
          "type": "bool"
        }
      ],
      "name": "ApprovalForAll",
      "type": "event"
    },
    {
      "anonymous": false,
      "inputs": [
        {
          "indexed": true,
          "internalType": "address",
          "name": "previousOwner",
          "type": "address"
        },
        {
          "indexed": true,
          "internalType": "address",
          "name": "newOwner",
          "type": "address"
        }
      ],
      "name": "OwnershipTransferred",
      "type": "event"
    },
    {
      "anonymous": false,
      "inputs": [
        {
          "indexed": true,
          "internalType": "address",
          "name": "from",
          "type": "address"
        },
        {
          "indexed": true,
          "internalType": "address",
          "name": "to",
          "type": "address"
        },
        {
          "indexed": true,
          "internalType": "uint256",
          "name": "tokenId",
          "type": "uint256"
        }
      ],
      "name": "Transfer",
      "type": "event"
    },
    {
      "inputs": [
        {
          "internalType": "address",
          "name": "to",
          "type": "address"
        },
        {
          "internalType": "uint256",
          "name": "tokenId",
          "type": "uint256"
        }
      ],
      "name": "approve",
      "outputs": [],
      "stateMutability": "nonpayable",
      "type": "function"
    },
    {
      "inputs": [
        {
          "internalType": "address",
          "name": "owner",
          "type": "address"
        }
      ],
      "name": "balanceOf",
      "outputs": [
        {
          "internalType": "uint256",
          "name": "",
          "type": "uint256"
        }
      ],
      "stateMutability": "view",
      "type": "function"
    },
    {
      "inputs": [
        {
          "internalType": "uint256",
          "name": "tokenId",
          "type": "uint256"
        }
      ],
      "name": "burn",
      "outputs": [],
      "stateMutability": "nonpayable",
      "type": "function"
    },
    {
      "inputs": [
        {
          "internalType": "uint256",
          "name": "tokenId",
          "type": "uint256"
        }
      ],
      "name": "getApproved",
      "outputs": [
        {
          "internalType": "address",
          "name": "",
          "type": "address"
        }
      ],
      "stateMutability": "view",
      "type": "function"
    },
    {
      "inputs": [
        {
          "internalType": "address",
          "name": "owner",
          "type": "address"
        },
        {
          "internalType": "address",
          "name": "operator",
          "type": "address"
        }
      ],
      "name": "isApprovedForAll",
      "outputs": [
        {
          "internalType": "bool",
          "name": "",
          "type": "bool"
        }
      ],
      "stateMutability": "view",
      "type": "function"
    },
    {
      "inputs": [
        {
          "internalType": "address",
          "name": "to",
          "type": "address"
        }
      ],
      "name": "mintNFT",
      "outputs": [],
      "stateMutability": "nonpayable",
      "type": "function"
    },
    {
      "inputs": [],
      "name": "name",
      "outputs": [
        {
          "internalType": "string",
          "name": "",
          "type": "string"
        }
      ],
      "stateMutability": "view",
      "type": "function"
    },
    {
      "inputs": [],
      "name": "owner",
      "outputs": [
        {
          "internalType": "address",
          "name": "",
          "type": "address"
        }
      ],
      "stateMutability": "view",
      "type": "function"
    },
    {
      "inputs": [
        {
          "internalType": "uint256",
          "name": "tokenId",
          "type": "uint256"
        }
      ],
      "name": "ownerOf",
      "outputs": [
        {
          "internalType": "address",
          "name": "",
          "type": "address"
        }
      ],
      "stateMutability": "view",
      "type": "function"
    },
    {
      "inputs": [],
      "name": "renounceOwnership",
      "outputs": [],
      "stateMutability": "nonpayable",
      "type": "function"
    },
    {
      "inputs": [
        {
          "internalType": "address",
          "name": "from",
          "type": "address"
        },
        {
          "internalType": "address",
          "name": "to",
          "type": "address"
        },
        {
          "internalType": "uint256",
          "name": "tokenId",
          "type": "uint256"
        }
      ],
      "name": "safeTransferFrom",
      "outputs": [],
      "stateMutability": "nonpayable",
      "type": "function"
    },
    {
      "inputs": [
        {
          "internalType": "address",
          "name": "from",
          "type": "address"
        },
        {
          "internalType": "address",
          "name": "to",
          "type": "address"
        },
        {
          "internalType": "uint256",
          "name": "tokenId",
          "type": "uint256"
        },
        {
          "internalType": "bytes",
          "name": "_data",
          "type": "bytes"
        }
      ],
      "name": "safeTransferFrom",
      "outputs": [],
      "stateMutability": "nonpayable",
      "type": "function"
    },
    {
      "inputs": [
        {
          "internalType": "address",
          "name": "operator",
          "type": "address"
        },
        {
          "internalType": "bool",
          "name": "approved",
          "type": "bool"
        }
      ],
      "name": "setApprovalForAll",
      "outputs": [],
      "stateMutability": "nonpayable",
      "type": "function"
    },
    {
      "inputs": [
        {
          "internalType": "string",
          "name": "baseURI",
          "type": "string"
        }
      ],
      "name": "setBaseURI",
      "outputs": [],
      "stateMutability": "nonpayable",
      "type": "function"
    },
    {
      "inputs": [
        {
          "internalType": "bytes4",
          "name": "interfaceId",
          "type": "bytes4"
        }
      ],
      "name": "supportsInterface",
      "outputs": [
        {
          "internalType": "bool",
          "name": "",
          "type": "bool"
        }
      ],
      "stateMutability": "view",
      "type": "function"
    },
    {
      "inputs": [],
      "name": "symbol",
      "outputs": [
        {
          "internalType": "string",
          "name": "",
          "type": "string"
        }
      ],
      "stateMutability": "view",
      "type": "function"
    },
    {
      "inputs": [
        {
          "internalType": "uint256",
          "name": "tokenId",
          "type": "uint256"
        }
      ],
      "name": "tokenURI",
      "outputs": [
        {
          "internalType": "string",
          "name": "",
          "type": "string"
        }
      ],
      "stateMutability": "view",
      "type": "function"
    },
    {
      "inputs": [
        {
          "internalType": "address",
          "name": "from",
          "type": "address"
        },
        {
          "internalType": "address",
          "name": "to",
          "type": "address"
        },
        {
          "internalType": "uint256",
          "name": "tokenId",
          "type": "uint256"
        }
      ],
      "name": "transferFrom",
      "outputs": [],
      "stateMutability": "nonpayable",
      "type": "function"
    },
    {
      "inputs": [
        {
          "internalType": "address",
          "name": "newOwner",
          "type": "address"
        }
      ],
      "name": "transferOwnership",
      "outputs": [],
      "stateMutability": "nonpayable",
      "type": "function"
    }
  ],
  "bytecode": "0x60806040523480156200001157600080fd5b5060405162001cf738038062001cf78339810160408190526200003491620001bd565b6040805180820182526005815264135e53919560da1b6020808301918252835180850190945260048452631353919560e21b9084015281519192916200007d9160009162000117565b5080516200009390600190602084019062000117565b5050506000620000a86200011360201b60201c565b600680546001600160a01b0319166001600160a01b038316908117909155604051919250906000907f8be0079c531659141344cd1fd0a4f28419497f9722a3daafe3b4186f6b6457e0908290a35080516200010b90600890602084019062000117565b5050620002df565b3390565b82805462000125906200028c565b90600052602060002090601f01602090048101928262000149576000855562000194565b82601f106200016457805160ff191683800117855562000194565b8280016001018555821562000194579182015b828111156200019457825182559160200191906001019062000177565b50620001a2929150620001a6565b5090565b5b80821115620001a25760008155600101620001a7565b60006020808385031215620001d0578182fd5b82516001600160401b0380821115620001e7578384fd5b818501915085601f830112620001fb578384fd5b815181811115620002105762000210620002c9565b604051601f8201601f1916810185018381118282101715620002365762000236620002c9565b60405281815283820185018810156200024d578586fd5b8592505b8183101562000270578383018501518184018601529184019162000251565b818311156200028157858583830101525b979650505050505050565b600281046001821680620002a157607f821691505b60208210811415620002c357634e487b7160e01b600052602260045260246000fd5b50919050565b634e487b7160e01b600052604160045260246000fd5b611a0880620002ef6000396000f3fe608060405234801561001057600080fd5b50600436106101215760003560e01c80636352211e116100ad578063a22cb46511610071578063a22cb46514610243578063b88d4fde14610256578063c87b56dd14610269578063e985e9c51461027c578063f2fde38b1461028f57610121565b80636352211e146101f857806370a082311461020b578063715018a61461022b5780638da5cb5b1461023357806395d89b411461023b57610121565b806323b872dd116100f457806323b872dd1461019957806342842e0e146101ac57806342966c68146101bf57806354ba0f27146101d257806355f804b3146101e557610121565b806301ffc9a71461012657806306fdde031461014f578063081812fc14610164578063095ea7b314610184575b600080fd5b610139610134366004611272565b6102a2565b60405161014691906113b4565b60405180910390f35b6101576102ea565b60405161014691906113bf565b6101776101723660046112f0565b61037c565b6040516101469190611363565b610197610192366004611249565b6103c8565b005b6101976101a736600461115b565b610460565b6101976101ba36600461115b565b610498565b6101976101cd3660046112f0565b6104b3565b6101976101e036600461110f565b6104f8565b6101976101f33660046112aa565b610546565b6101776102063660046112f0565b610598565b61021e61021936600461110f565b6105cd565b6040516101469190611898565b610197610611565b61017761069a565b6101576106a9565b61019761025136600461120f565b6106b8565b610197610264366004611196565b610786565b6101576102773660046112f0565b6107c5565b61013961028a366004611129565b610848565b61019761029d36600461110f565b610876565b60006001600160e01b031982166380ac58cd60e01b14806102d357506001600160e01b03198216635b5e139f60e01b145b806102e257506102e282610937565b90505b919050565b6060600080546102f990611910565b80601f016020809104026020016040519081016040528092919081815260200182805461032590611910565b80156103725780601f1061034757610100808354040283529160200191610372565b820191906000526020600020905b81548152906001019060200180831161035557829003601f168201915b5050505050905090565b600061038782610950565b6103ac5760405162461bcd60e51b81526004016103a3906116bd565b60405180910390fd5b506000908152600460205260409020546001600160a01b031690565b60006103d382610598565b9050806001600160a01b0316836001600160a01b031614156104075760405162461bcd60e51b81526004016103a3906117d6565b806001600160a01b031661041961096d565b6001600160a01b0316148061043557506104358161028a61096d565b6104515760405162461bcd60e51b81526004016103a390611598565b61045b8383610971565b505050565b61047161046b61096d565b826109df565b61048d5760405162461bcd60e51b81526004016103a390611817565b61045b838383610a64565b61045b83838360405180602001604052806000815250610786565b6104bc81610598565b6001600160a01b0316336001600160a01b0316146104ec5760405162461bcd60e51b81526004016103a3906113d2565b6104f581610b91565b50565b6105026007610c38565b600061050e6007610c41565b9050336001600160a01b038316146105385760405162461bcd60e51b81526004016103a390611868565b6105428282610c45565b5050565b61054e61096d565b6001600160a01b031661055f61069a565b6001600160a01b0316146105855760405162461bcd60e51b81526004016103a390611709565b8051610542906008906020840190610fef565b6000818152600260205260408120546001600160a01b0316806102e25760405162461bcd60e51b81526004016103a39061163f565b60006001600160a01b0382166105f55760405162461bcd60e51b81526004016103a3906115f5565b506001600160a01b031660009081526003602052604090205490565b61061961096d565b6001600160a01b031661062a61069a565b6001600160a01b0316146106505760405162461bcd60e51b81526004016103a390611709565b6006546040516000916001600160a01b0316907f8be0079c531659141344cd1fd0a4f28419497f9722a3daafe3b4186f6b6457e0908390a3600680546001600160a01b0319169055565b6006546001600160a01b031690565b6060600180546102f990611910565b6106c061096d565b6001600160a01b0316826001600160a01b031614156106f15760405162461bcd60e51b81526004016103a390611515565b80600560006106fe61096d565b6001600160a01b03908116825260208083019390935260409182016000908120918716808252919093529120805460ff19169215159290921790915561074261096d565b6001600160a01b03167f17307eab39ab6107e8899845ad3d59bd9653f200f220920489ca2b5937696c318360405161077a91906113b4565b60405180910390a35050565b61079761079161096d565b836109df565b6107b35760405162461bcd60e51b81526004016103a390611817565b6107bf84848484610c5f565b50505050565b60606107d082610950565b6107ec5760405162461bcd60e51b81526004016103a390611787565b60006107f6610c92565b905060008151116108165760405180602001604052806000815250610841565b8061082084610ca1565b604051602001610831929190611334565b6040516020818303038152906040525b9392505050565b6001600160a01b03918216600090815260056020908152604080832093909416825291909152205460ff1690565b61087e61096d565b6001600160a01b031661088f61069a565b6001600160a01b0316146108b55760405162461bcd60e51b81526004016103a390611709565b6001600160a01b0381166108db5760405162461bcd60e51b81526004016103a390611454565b6006546040516001600160a01b038084169216907f8be0079c531659141344cd1fd0a4f28419497f9722a3daafe3b4186f6b6457e090600090a3600680546001600160a01b0319166001600160a01b0392909216919091179055565b6001600160e01b031981166301ffc9a760e01b14919050565b6000908152600260205260409020546001600160a01b0316151590565b3390565b600081815260046020526040902080546001600160a01b0319166001600160a01b03841690811790915581906109a682610598565b6001600160a01b03167f8c5be1e5ebec7d5bd14f71427d1e84f3dd0314c0f7b2291e5b200ac8c7c3b92560405160405180910390a45050565b60006109ea82610950565b610a065760405162461bcd60e51b81526004016103a39061154c565b6000610a1183610598565b9050806001600160a01b0316846001600160a01b03161480610a4c5750836001600160a01b0316610a418461037c565b6001600160a01b0316145b80610a5c5750610a5c8185610848565b949350505050565b826001600160a01b0316610a7782610598565b6001600160a01b031614610a9d5760405162461bcd60e51b81526004016103a39061173e565b6001600160a01b038216610ac35760405162461bcd60e51b81526004016103a3906114d1565b610ace83838361045b565b610ad9600082610971565b6001600160a01b0383166000908152600360205260408120805460019290610b029084906118cd565b90915550506001600160a01b0382166000908152600360205260408120805460019290610b309084906118a1565b909155505060008181526002602052604080822080546001600160a01b0319166001600160a01b0386811691821790925591518493918716917fddf252ad1be2c89b69c2b068fc378daa952ba7f163c4a11628f55a4df523b3ef91a4505050565b6000610b9c82610598565b9050610baa8160008461045b565b610bb5600083610971565b6001600160a01b0381166000908152600360205260408120805460019290610bde9084906118cd565b909155505060008281526002602052604080822080546001600160a01b0319169055518391906001600160a01b038416907fddf252ad1be2c89b69c2b068fc378daa952ba7f163c4a11628f55a4df523b3ef908390a45050565b80546001019055565b5490565b610542828260405180602001604052806000815250610dbc565b610c6a848484610a64565b610c7684848484610def565b6107bf5760405162461bcd60e51b81526004016103a390611402565b6060600880546102f990611910565b606081610cc657506040805180820190915260018152600360fc1b60208201526102e5565b8160005b8115610cf05780610cda8161194b565b9150610ce99050600a836118b9565b9150610cca565b60008167ffffffffffffffff811115610d1957634e487b7160e01b600052604160045260246000fd5b6040519080825280601f01601f191660200182016040528015610d43576020820181803683370190505b5090505b8415610a5c57610d586001836118cd565b9150610d65600a86611966565b610d709060306118a1565b60f81b818381518110610d9357634e487b7160e01b600052603260045260246000fd5b60200101906001600160f81b031916908160001a905350610db5600a866118b9565b9450610d47565b610dc68383610f0a565b610dd36000848484610def565b61045b5760405162461bcd60e51b81526004016103a390611402565b6000610e03846001600160a01b0316610fe9565b15610eff57836001600160a01b031663150b7a02610e1f61096d565b8786866040518563ffffffff1660e01b8152600401610e419493929190611377565b602060405180830381600087803b158015610e5b57600080fd5b505af1925050508015610e8b575060408051601f3d908101601f19168201909252610e889181019061128e565b60015b610ee5573d808015610eb9576040519150601f19603f3d011682016040523d82523d6000602084013e610ebe565b606091505b508051610edd5760405162461bcd60e51b81526004016103a390611402565b805181602001fd5b6001600160e01b031916630a85bd0160e11b149050610a5c565b506001949350505050565b6001600160a01b038216610f305760405162461bcd60e51b81526004016103a390611688565b610f3981610950565b15610f565760405162461bcd60e51b81526004016103a39061149a565b610f626000838361045b565b6001600160a01b0382166000908152600360205260408120805460019290610f8b9084906118a1565b909155505060008181526002602052604080822080546001600160a01b0319166001600160a01b03861690811790915590518392907fddf252ad1be2c89b69c2b068fc378daa952ba7f163c4a11628f55a4df523b3ef908290a45050565b3b151590565b828054610ffb90611910565b90600052602060002090601f01602090048101928261101d5760008555611063565b82601f1061103657805160ff1916838001178555611063565b82800160010185558215611063579182015b82811115611063578251825591602001919060010190611048565b5061106f929150611073565b5090565b5b8082111561106f5760008155600101611074565b600067ffffffffffffffff808411156110a3576110a36119a6565b604051601f8501601f1916810160200182811182821017156110c7576110c76119a6565b6040528481529150818385018610156110df57600080fd5b8484602083013760006020868301015250509392505050565b80356001600160a01b03811681146102e557600080fd5b600060208284031215611120578081fd5b610841826110f8565b6000806040838503121561113b578081fd5b611144836110f8565b9150611152602084016110f8565b90509250929050565b60008060006060848603121561116f578081fd5b611178846110f8565b9250611186602085016110f8565b9150604084013590509250925092565b600080600080608085870312156111ab578081fd5b6111b4856110f8565b93506111c2602086016110f8565b925060408501359150606085013567ffffffffffffffff8111156111e4578182fd5b8501601f810187136111f4578182fd5b61120387823560208401611088565b91505092959194509250565b60008060408385031215611221578182fd5b61122a836110f8565b91506020830135801515811461123e578182fd5b809150509250929050565b6000806040838503121561125b578182fd5b611264836110f8565b946020939093013593505050565b600060208284031215611283578081fd5b8135610841816119bc565b60006020828403121561129f578081fd5b8151610841816119bc565b6000602082840312156112bb578081fd5b813567ffffffffffffffff8111156112d1578182fd5b8201601f810184136112e1578182fd5b610a5c84823560208401611088565b600060208284031215611301578081fd5b5035919050565b600081518084526113208160208601602086016118e4565b601f01601f19169290920160200192915050565b600083516113468184602088016118e4565b83519083019061135a8183602088016118e4565b01949350505050565b6001600160a01b0391909116815260200190565b6001600160a01b03858116825284166020820152604081018390526080606082018190526000906113aa90830184611308565b9695505050505050565b901515815260200190565b6000602082526108416020830184611308565b60208082526016908201527524b73b30b634b21031b0b63632b9103a3790313ab93760511b604082015260600190565b60208082526032908201527f4552433732313a207472616e7366657220746f206e6f6e20455243373231526560408201527131b2b4bb32b91034b6b83632b6b2b73a32b960711b606082015260800190565b60208082526026908201527f4f776e61626c653a206e6577206f776e657220697320746865207a65726f206160408201526564647265737360d01b606082015260800190565b6020808252601c908201527f4552433732313a20746f6b656e20616c7265616479206d696e74656400000000604082015260600190565b60208082526024908201527f4552433732313a207472616e7366657220746f20746865207a65726f206164646040820152637265737360e01b606082015260800190565b60208082526019908201527f4552433732313a20617070726f766520746f2063616c6c657200000000000000604082015260600190565b6020808252602c908201527f4552433732313a206f70657261746f7220717565727920666f72206e6f6e657860408201526b34b9ba32b73a103a37b5b2b760a11b606082015260800190565b60208082526038908201527f4552433732313a20617070726f76652063616c6c6572206973206e6f74206f7760408201527f6e6572206e6f7220617070726f76656420666f7220616c6c0000000000000000606082015260800190565b6020808252602a908201527f4552433732313a2062616c616e636520717565727920666f7220746865207a65604082015269726f206164647265737360b01b606082015260800190565b60208082526029908201527f4552433732313a206f776e657220717565727920666f72206e6f6e657869737460408201526832b73a103a37b5b2b760b91b606082015260800190565b6020808252818101527f4552433732313a206d696e7420746f20746865207a65726f2061646472657373604082015260600190565b6020808252602c908201527f4552433732313a20617070726f76656420717565727920666f72206e6f6e657860408201526b34b9ba32b73a103a37b5b2b760a11b606082015260800190565b6020808252818101527f4f776e61626c653a2063616c6c6572206973206e6f7420746865206f776e6572604082015260600190565b60208082526029908201527f4552433732313a207472616e73666572206f6620746f6b656e2074686174206960408201526839903737ba1037bbb760b91b606082015260800190565b6020808252602f908201527f4552433732314d657461646174613a2055524920717565727920666f72206e6f60408201526e3732bc34b9ba32b73a103a37b5b2b760891b606082015260800190565b60208082526021908201527f4552433732313a20617070726f76616c20746f2063757272656e74206f776e656040820152603960f91b606082015260800190565b60208082526031908201527f4552433732313a207472616e736665722063616c6c6572206973206e6f74206f6040820152701ddb995c881b9bdc88185c1c1c9bdd9959607a1b606082015260800190565b602080825260169082015275125b9d985b1a590818d85b1b195c881d1bc81b5a5b9d60521b604082015260600190565b90815260200190565b600082198211156118b4576118b461197a565b500190565b6000826118c8576118c8611990565b500490565b6000828210156118df576118df61197a565b500390565b60005b838110156118ff5781810151838201526020016118e7565b838111156107bf5750506000910152565b60028104600182168061192457607f821691505b6020821081141561194557634e487b7160e01b600052602260045260246000fd5b50919050565b600060001982141561195f5761195f61197a565b5060010190565b60008261197557611975611990565b500690565b634e487b7160e01b600052601160045260246000fd5b634e487b7160e01b600052601260045260246000fd5b634e487b7160e01b600052604160045260246000fd5b6001600160e01b0319811681146104f557600080fdfea2646970667358221220975d144d3e7c7d854f1e9a6cf363d9dd9728adfa78082c03c0d405d0202fa2ce64736f6c63430008000033",
  "linkReferences": {},
  "deployedLinkReferences": {}
}